{
  "contractName": "MarketFactory",
  "abi": [
    {
      "constant": true,
      "inputs": [
        {
          "name": "",
          "type": "uint256"
        }
      ],
      "name": "deployedMarkets",
      "outputs": [
        {
          "name": "",
          "type": "address"
        }
      ],
      "payable": false,
      "stateMutability": "view",
      "type": "function"
    },
    {
      "constant": true,
      "inputs": [
        {
          "name": "",
          "type": "address"
        }
      ],
      "name": "deployedDescription",
      "outputs": [
        {
          "name": "",
          "type": "string"
        }
      ],
      "payable": false,
      "stateMutability": "view",
      "type": "function"
    },
    {
      "constant": false,
      "inputs": [
        {
          "name": "description",
          "type": "string"
        },
        {
          "name": "stack",
          "type": "uint256"
        }
      ],
      "name": "createMarket",
      "outputs": [],
      "payable": false,
      "stateMutability": "nonpayable",
      "type": "function"
    },
    {
      "constant": true,
      "inputs": [],
      "name": "getDeployedMarkets",
      "outputs": [
        {
          "name": "",
          "type": "address[]"
        }
      ],
      "payable": false,
      "stateMutability": "view",
      "type": "function"
    }
  ],
  "bytecode": "0x608060405234801561001057600080fd5b50611250806100206000396000f300608060405260043610610062576000357c0100000000000000000000000000000000000000000000000000000000900463ffffffff1680631b0bbbd2146100675780635b51eb88146100d3578063883c84c114610140578063feb8c80b146101b3575b600080fd5b34801561007357600080fd5b5061007c61026f565b6040518080602001828103825283818151815260200191508051906020019060200280838360005b838110156100bf5780820151818401526020810190506100a4565b505050509050019250505060405180910390f35b3480156100df57600080fd5b506100fe600480360381019080803590602001909291905050506102fd565b604051808273ffffffffffffffffffffffffffffffffffffffff1673ffffffffffffffffffffffffffffffffffffffff16815260200191505060405180910390f35b34801561014c57600080fd5b506101b1600480360381019080803590602001908201803590602001908080601f01602080910402602001604051908101604052809392919081815260200183838082843782019150505050505091929192908035906020019092919050505061033b565b005b3480156101bf57600080fd5b506101f4600480360381019080803573ffffffffffffffffffffffffffffffffffffffff1690602001909291905050506104cf565b6040518080602001828103825283818151815260200191508051906020019080838360005b83811015610234578082015181840152602081019050610219565b50505050905090810190601f1680156102615780820380516001836020036101000a031916815260200191505b509250505060405180910390f35b606060008054806020026020016040519081016040528092919081815260200182805480156102f357602002820191906000526020600020905b8160009054906101000a900473ffffffffffffffffffffffffffffffffffffffff1673ffffffffffffffffffffffffffffffffffffffff16815260200190600101908083116102a9575b5050505050905090565b60008181548110151561030c57fe5b906000526020600020016000915054906101000a900473ffffffffffffffffffffffffffffffffffffffff1681565b600082823361034861057f565b80806020018481526020018373ffffffffffffffffffffffffffffffffffffffff1673ffffffffffffffffffffffffffffffffffffffff168152602001828103825285818151815260200191508051906020019080838360005b838110156103bd5780820151818401526020810190506103a2565b50505050905090810190601f1680156103ea5780820380516001836020036101000a031916815260200191505b50945050505050604051809103906000f08015801561040d573d6000803e3d6000fd5b50905060008190806001815401808255809150509060018203906000526020600020016000909192909190916101000a81548173ffffffffffffffffffffffffffffffffffffffff021916908373ffffffffffffffffffffffffffffffffffffffff1602179055505082600160008373ffffffffffffffffffffffffffffffffffffffff1673ffffffffffffffffffffffffffffffffffffffff16815260200190815260200160002090805190602001906104c992919061058f565b50505050565b60016020528060005260406000206000915090508054600181600116156101000203166002900480601f0160208091040260200160405190810160405280929190818152602001828054600181600116156101000203166002900480156105775780601f1061054c57610100808354040283529160200191610577565b820191906000526020600020905b81548152906001019060200180831161055a57829003601f168201915b505050505081565b604051610bf08061063583390190565b828054600181600116156101000203166002900490600052602060002090601f016020900481019282601f106105d057805160ff19168380011785556105fe565b828001600101855582156105fe579182015b828111156105fd5782518255916020019190600101906105e2565b5b50905061060b919061060f565b5090565b61063191905b8082111561062d576000816000905550600101610615565b5090565b905600608060405234801561001057600080fd5b50604051610bf0380380610bf083398101806040528101908080518201929190602001805190602001909291908051906020019092919050505080600160006101000a81548173ffffffffffffffffffffffffffffffffffffffff021916908373ffffffffffffffffffffffffffffffffffffffff1602179055508160028190555082600390805190602001906100a89291906100d4565b506000600660006101000a81548160ff0219169083151502179055506000600781905550505050610179565b828054600181600116156101000203166002900490600052602060002090601f016020900481019282601f1061011557805160ff1916838001178555610143565b82800160010185558215610143579182015b82811115610142578251825591602001919060010190610127565b5b5090506101509190610154565b5090565b61017691905b8082111561017257600081600090555060010161015a565b5090565b90565b610a68806101886000396000f3006080604052600436106100ba576000357c0100000000000000000000000000000000000000000000000000000000900463ffffffff168063138ef151146100bf5780631865c57d146100ea5780632aaf9c66146101195780634051ddac14610198578063481c6a75146102125780637284e416146102695780639195982d146102f957806396962c9414610328578063a6cab7f914610332578063b9f10fbc1461035d578063ba0f51c714610388578063ccc9de1314610392575b600080fd5b3480156100cb57600080fd5b506100d46103bd565b6040518082815260200191505060405180910390f35b3480156100f657600080fd5b506100ff6103c3565b604051808215151515815260200191505060405180910390f35b34801561012557600080fd5b50610144600480360381019080803590602001909291905050506103da565b604051808473ffffffffffffffffffffffffffffffffffffffff1673ffffffffffffffffffffffffffffffffffffffff16815260200183815260200182151515158152602001935050505060405180910390f35b3480156101a457600080fd5b506101ad610440565b604051808781526020018681526020018581526020018481526020018381526020018273ffffffffffffffffffffffffffffffffffffffff1673ffffffffffffffffffffffffffffffffffffffff168152602001965050505050505060405180910390f35b34801561021e57600080fd5b506102276104a7565b604051808273ffffffffffffffffffffffffffffffffffffffff1673ffffffffffffffffffffffffffffffffffffffff16815260200191505060405180910390f35b34801561027557600080fd5b5061027e6104cd565b6040518080602001828103825283818151815260200191508051906020019080838360005b838110156102be5780820151818401526020810190506102a3565b50505050905090810190601f1680156102eb5780820380516001836020036101000a031916815260200191505b509250505060405180910390f35b34801561030557600080fd5b5061032660048036038101908080351515906020019092919050505061056b565b005b6103306107a4565b005b34801561033e57600080fd5b506103476108c7565b6040518082815260200191505060405180910390f35b34801561036957600080fd5b506103726108d3565b6040518082815260200191505060405180910390f35b6103906108d9565b005b34801561039e57600080fd5b506103a76109fc565b6040518082815260200191505060405180910390f35b60025481565b6000600660009054906101000a900460ff16905090565b6000818154811015156103e957fe5b90600052602060002090600302016000915090508060000160009054906101000a900473ffffffffffffffffffffffffffffffffffffffff16908060010154908060020160009054906101000a900460ff16905083565b6000806000806000806002543073ffffffffffffffffffffffffffffffffffffffff1631600080549050600454600554600160009054906101000a900473ffffffffffffffffffffffffffffffffffffffff16955095509550955095509550909192939495565b600160009054906101000a900473ffffffffffffffffffffffffffffffffffffffff1681565b60038054600181600116156101000203166002900480601f0160208091040260200160405190810160405280929190818152602001828054600181600116156101000203166002900480156105635780601f1061053857610100808354040283529160200191610563565b820191906000526020600020905b81548152906001019060200180831161054657829003601f168201915b505050505081565b6000600160009054906101000a900473ffffffffffffffffffffffffffffffffffffffff1673ffffffffffffffffffffffffffffffffffffffff163373ffffffffffffffffffffffffffffffffffffffff161415156105c957600080fd5b600160009054906101000a900473ffffffffffffffffffffffffffffffffffffffff1673ffffffffffffffffffffffffffffffffffffffff163373ffffffffffffffffffffffffffffffffffffffff1614151561062557600080fd5b600660009054906101000a900460ff1615151561064157600080fd5b8115610677576004543073ffffffffffffffffffffffffffffffffffffffff163181151561066b57fe5b046007819055506106a3565b6005543073ffffffffffffffffffffffffffffffffffffffff163181151561069b57fe5b046007819055505b600090505b600080549050811015610785578115156000828154811015156106c757fe5b906000526020600020906003020160020160009054906101000a900460ff1615151415610778576000818154811015156106fd57fe5b906000526020600020906003020160000160009054906101000a900473ffffffffffffffffffffffffffffffffffffffff1673ffffffffffffffffffffffffffffffffffffffff166108fc6007549081150290604051600060405180830381858888f19350505050158015610776573d6000803e3d6000fd5b505b80806001019150506106a8565b6001600660006101000a81548160ff0219169083151502179055505050565b6107ac610a02565b60025434101515156107bd57600080fd5b600660009054906101000a900460ff161515156107d957600080fd5b6060604051908101604052803373ffffffffffffffffffffffffffffffffffffffff1681526020013481526020016000151581525090506000819080600181540180825580915050906001820390600052602060002090600302016000909192909190915060008201518160000160006101000a81548173ffffffffffffffffffffffffffffffffffffffff021916908373ffffffffffffffffffffffffffffffffffffffff1602179055506020820151816001015560408201518160020160006101000a81548160ff02191690831515021790555050505060056000815480929190600101919050555050565b60008080549050905090565b60045481565b6108e1610a02565b60025434101515156108f257600080fd5b600660009054906101000a900460ff1615151561090e57600080fd5b6060604051908101604052803373ffffffffffffffffffffffffffffffffffffffff1681526020013481526020016001151581525090506000819080600181540180825580915050906001820390600052602060002090600302016000909192909190915060008201518160000160006101000a81548173ffffffffffffffffffffffffffffffffffffffff021916908373ffffffffffffffffffffffffffffffffffffffff1602179055506020820151816001015560408201518160020160006101000a81548160ff02191690831515021790555050505060046000815480929190600101919050555050565b60055481565b606060405190810160405280600073ffffffffffffffffffffffffffffffffffffffff1681526020016000815260200160001515815250905600a165627a7a723058207adac256d23acebd45895eb11e2f102fb1957bca9f756ef811a8d027efc362c90029a165627a7a7230582094d85b30296efde7d251c217a0b7cc6003b1c4014b0485cb5264532283c9a14b0029",
  "source": "pragma solidity ^0.4.17;\n\ncontract MarketFactory {\n    address[] public deployedMarkets;\n    mapping(address => string) public deployedDescription;\n    \n    function createMarket(string description, uint stack) public {\n        address newMarket = new Market(description, stack, msg.sender);\n        deployedMarkets.push(newMarket);\n        deployedDescription[newMarket] = description;\n    }\n    \n    function getDeployedMarkets() public view returns (address[]) {\n        return deployedMarkets;\n    }\n}\n\ncontract Market {\n    struct Gambler {\n        address gamblerAddress;\n        uint value;\n        bool gamblersChoice;\n    }\n    \n    Gambler[] public gamblers;\n    address public manager;\n    uint public stack;\n    string public description;\n    uint public gamblersYesCount;\n    uint public gamblersNoCount;\n    bool complete;\n    uint prize;\n    \n    modifier restricted() {\n        require(msg.sender == manager);\n        _;\n    }\n    \n    constructor(string _description, uint _stack, address _creator) public {\n        manager = _creator;\n        stack = _stack;\n        description = _description;\n        complete = false;\n        prize = 0;\n    }\n    \n    function getSummary() public view returns (\n        uint, uint, uint, uint, uint, address\n    ) {\n        return (\n            stack,\n            address(this).balance,\n            gamblers.length,\n            gamblersYesCount,\n            gamblersNoCount,\n            manager\n        );\n    }\n    \n    function getState() public view returns(bool) {\n        return complete;\n    }\n    \n    function betYes() public payable {\n        require(msg.value >= stack);\n        require(!complete);\n        Gambler memory newGambler = Gambler({\n            gamblerAddress: msg.sender,\n            value: msg.value,\n            gamblersChoice: true\n        });\n        \n        gamblers.push(newGambler);\n        gamblersYesCount++;\n    }\n    \n    function betNo() public payable {\n        require(msg.value >= stack);\n        require(!complete);\n        Gambler memory newGambler = Gambler({\n            gamblerAddress: msg.sender,\n            value: msg.value,\n            gamblersChoice: false\n        });\n        gamblers.push(newGambler);\n        gamblersNoCount++;\n    }\n    \n    function getGamblersCount() public view returns (uint) {\n        return gamblers.length;\n    }\n    \n    function finalizeBetting(bool result) public restricted {\n        require(msg.sender==manager);\n        require(!complete);\n        if (result) {\n            prize = address(this).balance / gamblersYesCount;\n        } else {\n            prize = address(this).balance / gamblersNoCount;\n        }\n        for (uint i=0; i < gamblers.length; i++) {\n            if (gamblers[i].gamblersChoice == result) {\n                gamblers[i].gamblerAddress.transfer(prize);\n            }\n        }\n        complete = true;\n    }\n}\n  ",
  "sourcePath": "/Users/sychen/truffle-react/contracts/Market.sol",
  "compiler": {
    "name": "solc",
    "version": "0.4.26+commit.4563c3fc.Emscripten.clang"
  },
  "schemaVersion": "3.2.5",
  "updatedAt": "2021-01-12T02:19:59.050Z",
  "devdoc": {
    "methods": {}
  },
  "userdoc": {
    "methods": {}
  }
}